{
  "contractName": "AttendanceApp",
  "abi": [
    {
      "inputs": [],
      "payable": false,
      "stateMutability": "nonpayable",
      "type": "constructor"
    },
    {
      "anonymous": false,
      "inputs": [
        {
          "indexed": false,
          "internalType": "uint256",
          "name": "id",
          "type": "uint256"
        },
        {
          "indexed": false,
          "internalType": "string",
          "name": "name",
          "type": "string"
        },
        {
          "indexed": false,
          "internalType": "address",
          "name": "studAddress",
          "type": "address"
        },
        {
          "indexed": false,
          "internalType": "string",
          "name": "date",
          "type": "string"
        },
        {
          "indexed": false,
          "internalType": "string",
          "name": "number",
          "type": "string"
        }
      ],
      "name": "AttendanceMarked",
      "type": "event"
    },
    {
      "constant": true,
      "inputs": [
        {
          "internalType": "uint256",
          "name": "",
          "type": "uint256"
        }
      ],
      "name": "atlist",
      "outputs": [
        {
          "internalType": "uint256",
          "name": "id",
          "type": "uint256"
        },
        {
          "internalType": "string",
          "name": "name",
          "type": "string"
        },
        {
          "internalType": "address",
          "name": "studAddress",
          "type": "address"
        },
        {
          "internalType": "string",
          "name": "date",
          "type": "string"
        },
        {
          "internalType": "string",
          "name": "number",
          "type": "string"
        }
      ],
      "payable": false,
      "stateMutability": "view",
      "type": "function"
    },
    {
      "constant": true,
      "inputs": [],
      "name": "studCount",
      "outputs": [
        {
          "internalType": "uint256",
          "name": "",
          "type": "uint256"
        }
      ],
      "payable": false,
      "stateMutability": "view",
      "type": "function"
    },
    {
      "constant": false,
      "inputs": [
        {
          "internalType": "string",
          "name": "_name",
          "type": "string"
        },
        {
          "internalType": "string",
          "name": "_date",
          "type": "string"
        },
        {
          "internalType": "string",
          "name": "_address",
          "type": "string"
        }
      ],
      "name": "markPresent",
      "outputs": [],
      "payable": false,
      "stateMutability": "nonpayable",
      "type": "function"
    }
  ],
  "bytecode": "0x60806040526000805534801561001457600080fd5b506109d2806100246000396000f3fe608060405234801561001057600080fd5b50600436106100415760003560e01c80630d2e8cec1461004657806338a130e714610064578063ccd45bc51461021d575b600080fd5b61004e610406565b6040518082815260200191505060405180910390f35b6100906004803603602081101561007a57600080fd5b810190808035906020019092919050505061040c565b60405180868152602001806020018573ffffffffffffffffffffffffffffffffffffffff1673ffffffffffffffffffffffffffffffffffffffff1681526020018060200180602001848103845288818151815260200191508051906020019080838360005b838110156101105780820151818401526020810190506100f5565b50505050905090810190601f16801561013d5780820380516001836020036101000a031916815260200191505b50848103835286818151815260200191508051906020019080838360005b8381101561017657808201518184015260208101905061015b565b50505050905090810190601f1680156101a35780820380516001836020036101000a031916815260200191505b50848103825285818151815260200191508051906020019080838360005b838110156101dc5780820151818401526020810190506101c1565b50505050905090810190601f1680156102095780820380516001836020036101000a031916815260200191505b509850505050505050505060405180910390f35b6104046004803603606081101561023357600080fd5b810190808035906020019064010000000081111561025057600080fd5b82018360208201111561026257600080fd5b8035906020019184600183028401116401000000008311171561028457600080fd5b91908080601f016020809104026020016040519081016040528093929190818152602001838380828437600081840152601f19601f820116905080830192505050505050509192919290803590602001906401000000008111156102e757600080fd5b8201836020820111156102f957600080fd5b8035906020019184600183028401116401000000008311171561031b57600080fd5b91908080601f016020809104026020016040519081016040528093929190818152602001838380828437600081840152601f19601f8201169050808301925050505050505091929192908035906020019064010000000081111561037e57600080fd5b82018360208201111561039057600080fd5b803590602001918460018302840111640100000000831117156103b257600080fd5b91908080601f016020809104026020016040519081016040528093929190818152602001838380828437600081840152601f19601f82011690508083019250505050505050919291929050505061062a565b005b60005481565b6001602052806000526040600020600091509050806000015490806001018054600181600116156101000203166002900480601f0160208091040260200160405190810160405280929190818152602001828054600181600116156101000203166002900480156104be5780601f10610493576101008083540402835291602001916104be565b820191906000526020600020905b8154815290600101906020018083116104a157829003601f168201915b5050505050908060020160009054906101000a900473ffffffffffffffffffffffffffffffffffffffff1690806003018054600181600116156101000203166002900480601f0160208091040260200160405190810160405280929190818152602001828054600181600116156101000203166002900480156105825780601f1061055757610100808354040283529160200191610582565b820191906000526020600020905b81548152906001019060200180831161056557829003601f168201915b505050505090806004018054600181600116156101000203166002900480601f0160208091040260200160405190810160405280929190818152602001828054600181600116156101000203166002900480156106205780601f106105f557610100808354040283529160200191610620565b820191906000526020600020905b81548152906001019060200180831161060357829003601f168201915b5050505050905085565b600033905060008081548092919060010191905055506040518060a0016040528060005481526020018581526020018273ffffffffffffffffffffffffffffffffffffffff1681526020018481526020018381525060016000805481526020019081526020016000206000820151816000015560208201518160010190805190602001906106b99291906108f8565b5060408201518160020160006101000a81548173ffffffffffffffffffffffffffffffffffffffff021916908373ffffffffffffffffffffffffffffffffffffffff160217905550606082015181600301908051906020019061071d9291906108f8565b50608082015181600401908051906020019061073a9291906108f8565b509050507f39f39f2878f56e60df9780a0ed1ba57f0698098ff3a602440ecd6228a41aad616000548583868660405180868152602001806020018573ffffffffffffffffffffffffffffffffffffffff1673ffffffffffffffffffffffffffffffffffffffff1681526020018060200180602001848103845288818151815260200191508051906020019080838360005b838110156107e65780820151818401526020810190506107cb565b50505050905090810190601f1680156108135780820380516001836020036101000a031916815260200191505b50848103835286818151815260200191508051906020019080838360005b8381101561084c578082015181840152602081019050610831565b50505050905090810190601f1680156108795780820380516001836020036101000a031916815260200191505b50848103825285818151815260200191508051906020019080838360005b838110156108b2578082015181840152602081019050610897565b50505050905090810190601f1680156108df5780820380516001836020036101000a031916815260200191505b509850505050505050505060405180910390a150505050565b828054600181600116156101000203166002900490600052602060002090601f016020900481019282601f1061093957805160ff1916838001178555610967565b82800160010185558215610967579182015b8281111561096657825182559160200191906001019061094b565b5b5090506109749190610978565b5090565b61099a91905b8082111561099657600081600090555060010161097e565b5090565b9056fea265627a7a723158202c0b12a2feb25dcf5cbb8f4e59830d674cc9ab5dca2419b333880e16b522127164736f6c63430005100032",
  "source": "pragma solidity ^0.5.0;\n\ncontract AttendanceApp {\n  uint public studCount = 0;\n\n  struct AtData {\n    uint id;\n    string name;\n    address studAddress;\n    string date;\n    string number;\n  }\n\n  mapping(uint => AtData) public atlist;\n\n  event AttendanceMarked(\n    uint id,\n    string name,\n    address studAddress,\n    string date,\n    string number\n  );\n\n  constructor() public {\n    // Can make the constructor do something here.\n  }\n\n  function markPresent(string memory _name, string memory _date, string memory _address) public {\n    address studAddress = msg.sender;\n    studCount ++;\n    atlist[studCount] = AtData(studCount, _name, studAddress, _date, _address);\n    emit AttendanceMarked(studCount, _name, studAddress, _date, _address);\n  }\n\n}\n",
  "sourcePath": "/home/srujan/Projects/healthnet/contracts/AttendanceApp.sol",
  "compiler": {
    "name": "solc",
    "version": "0.5.16+commit.9c3226ce.Emscripten.clang"
  },
  "schemaVersion": "3.0.23",
  "updatedAt": "2020-05-09T12:16:48.825Z",
  "networkType": "ethereum",
  "devdoc": {
    "methods": {}
  },
  "userdoc": {
    "methods": {}
  }
}