{
  "contractName": "HealthnetApp",
  "abi": [
    {
      "inputs": [],
      "payable": false,
      "stateMutability": "nonpayable",
      "type": "constructor"
    },
    {
      "anonymous": false,
      "inputs": [
        {
          "indexed": false,
          "internalType": "uint256",
          "name": "recordNumber",
          "type": "uint256"
        },
        {
          "indexed": false,
          "internalType": "uint256",
          "name": "patientNumber",
          "type": "uint256"
        },
        {
          "indexed": false,
          "internalType": "address",
          "name": "hospitalAddress",
          "type": "address"
        },
        {
          "indexed": false,
          "internalType": "string",
          "name": "recordText",
          "type": "string"
        },
        {
          "indexed": false,
          "internalType": "string",
          "name": "dateTime",
          "type": "string"
        }
      ],
      "name": "NewRecord",
      "type": "event"
    },
    {
      "constant": true,
      "inputs": [],
      "name": "hospitalCount",
      "outputs": [
        {
          "internalType": "uint256",
          "name": "",
          "type": "uint256"
        }
      ],
      "payable": false,
      "stateMutability": "view",
      "type": "function"
    },
    {
      "constant": true,
      "inputs": [
        {
          "internalType": "uint256",
          "name": "",
          "type": "uint256"
        }
      ],
      "name": "hospitalList",
      "outputs": [
        {
          "internalType": "address",
          "name": "hospitalAddress",
          "type": "address"
        },
        {
          "internalType": "string",
          "name": "name",
          "type": "string"
        },
        {
          "internalType": "string",
          "name": "code",
          "type": "string"
        }
      ],
      "payable": false,
      "stateMutability": "view",
      "type": "function"
    },
    {
      "constant": true,
      "inputs": [],
      "name": "insurerCount",
      "outputs": [
        {
          "internalType": "uint256",
          "name": "",
          "type": "uint256"
        }
      ],
      "payable": false,
      "stateMutability": "view",
      "type": "function"
    },
    {
      "constant": true,
      "inputs": [
        {
          "internalType": "uint256",
          "name": "",
          "type": "uint256"
        }
      ],
      "name": "insurerList",
      "outputs": [
        {
          "internalType": "address",
          "name": "insurerAddress",
          "type": "address"
        },
        {
          "internalType": "string",
          "name": "name",
          "type": "string"
        },
        {
          "internalType": "string",
          "name": "code",
          "type": "string"
        }
      ],
      "payable": false,
      "stateMutability": "view",
      "type": "function"
    },
    {
      "constant": true,
      "inputs": [],
      "name": "patientCount",
      "outputs": [
        {
          "internalType": "uint256",
          "name": "",
          "type": "uint256"
        }
      ],
      "payable": false,
      "stateMutability": "view",
      "type": "function"
    },
    {
      "constant": true,
      "inputs": [
        {
          "internalType": "uint256",
          "name": "",
          "type": "uint256"
        }
      ],
      "name": "patientList",
      "outputs": [
        {
          "internalType": "string",
          "name": "name",
          "type": "string"
        },
        {
          "internalType": "string",
          "name": "dob",
          "type": "string"
        },
        {
          "internalType": "uint256",
          "name": "phone",
          "type": "uint256"
        },
        {
          "internalType": "string",
          "name": "email",
          "type": "string"
        },
        {
          "internalType": "uint256",
          "name": "firstRecord",
          "type": "uint256"
        }
      ],
      "payable": false,
      "stateMutability": "view",
      "type": "function"
    },
    {
      "constant": true,
      "inputs": [],
      "name": "recordCount",
      "outputs": [
        {
          "internalType": "uint256",
          "name": "",
          "type": "uint256"
        }
      ],
      "payable": false,
      "stateMutability": "view",
      "type": "function"
    },
    {
      "constant": true,
      "inputs": [
        {
          "internalType": "uint256",
          "name": "",
          "type": "uint256"
        }
      ],
      "name": "recordList",
      "outputs": [
        {
          "internalType": "uint256",
          "name": "patientNumber",
          "type": "uint256"
        },
        {
          "internalType": "address",
          "name": "hospitalAddress",
          "type": "address"
        },
        {
          "internalType": "string",
          "name": "recordText",
          "type": "string"
        },
        {
          "internalType": "string",
          "name": "dateTime",
          "type": "string"
        },
        {
          "internalType": "uint256",
          "name": "next",
          "type": "uint256"
        },
        {
          "internalType": "uint256",
          "name": "approved",
          "type": "uint256"
        }
      ],
      "payable": false,
      "stateMutability": "view",
      "type": "function"
    },
    {
      "constant": false,
      "inputs": [
        {
          "internalType": "uint256",
          "name": "_patient_number",
          "type": "uint256"
        },
        {
          "internalType": "string",
          "name": "_record_text",
          "type": "string"
        },
        {
          "internalType": "string",
          "name": "_date_time",
          "type": "string"
        }
      ],
      "name": "addRecord",
      "outputs": [],
      "payable": false,
      "stateMutability": "nonpayable",
      "type": "function"
    }
  ],
  "bytecode": "0x60806040526000805560006001556000600255600060035534801561002357600080fd5b506111b8806100336000396000f3fe608060405234801561001057600080fd5b50600436106100935760003560e01c806378ffb2921161006657806378ffb2921461038b578063900407bc146104d1578063a0303c41146104ef578063babb1d411461050d578063c82412b91461069a57610093565b806319da83a81461009857806333f90dcd146101f3578063350dadb71461034f57806348c0df2c1461036d575b600080fd5b6100c4600480360360208110156100ae57600080fd5b81019080803590602001909291905050506107e0565b604051808781526020018673ffffffffffffffffffffffffffffffffffffffff1673ffffffffffffffffffffffffffffffffffffffff1681526020018060200180602001858152602001848152602001838103835287818151815260200191508051906020019080838360005b8381101561014c578082015181840152602081019050610131565b50505050905090810190601f1680156101795780820380516001836020036101000a031916815260200191505b50838103825286818151815260200191508051906020019080838360005b838110156101b2578082015181840152602081019050610197565b50505050905090810190601f1680156101df5780820380516001836020036101000a031916815260200191505b509850505050505050505060405180910390f35b61034d6004803603606081101561020957600080fd5b81019080803590602001909291908035906020019064010000000081111561023057600080fd5b82018360208201111561024257600080fd5b8035906020019184600183028401116401000000008311171561026457600080fd5b91908080601f016020809104026020016040519081016040528093929190818152602001838380828437600081840152601f19601f820116905080830192505050505050509192919290803590602001906401000000008111156102c757600080fd5b8201836020820111156102d957600080fd5b803590602001918460018302840111640100000000831117156102fb57600080fd5b91908080601f016020809104026020016040519081016040528093929190818152602001838380828437600081840152601f19601f82011690508083019250505050505050919291929050505061096c565b005b610357610bd4565b6040518082815260200191505060405180910390f35b610375610bda565b6040518082815260200191505060405180910390f35b6103b7600480360360208110156103a157600080fd5b8101908080359060200190929190505050610be0565b604051808473ffffffffffffffffffffffffffffffffffffffff1673ffffffffffffffffffffffffffffffffffffffff1681526020018060200180602001838103835285818151815260200191508051906020019080838360005b8381101561042d578082015181840152602081019050610412565b50505050905090810190601f16801561045a5780820380516001836020036101000a031916815260200191505b50838103825284818151815260200191508051906020019080838360005b83811015610493578082015181840152602081019050610478565b50505050905090810190601f1680156104c05780820380516001836020036101000a031916815260200191505b509550505050505060405180910390f35b6104d9610d5a565b6040518082815260200191505060405180910390f35b6104f7610d60565b6040518082815260200191505060405180910390f35b6105396004803603602081101561052357600080fd5b8101908080359060200190929190505050610d66565b60405180806020018060200186815260200180602001858152602001848103845289818151815260200191508051906020019080838360005b8381101561058d578082015181840152602081019050610572565b50505050905090810190601f1680156105ba5780820380516001836020036101000a031916815260200191505b50848103835288818151815260200191508051906020019080838360005b838110156105f35780820151818401526020810190506105d8565b50505050905090810190601f1680156106205780820380516001836020036101000a031916815260200191505b50848103825286818151815260200191508051906020019080838360005b8381101561065957808201518184015260208101905061063e565b50505050905090810190601f1680156106865780820380516001836020036101000a031916815260200191505b509850505050505050505060405180910390f35b6106c6600480360360208110156106b057600080fd5b8101908080359060200190929190505050610f64565b604051808473ffffffffffffffffffffffffffffffffffffffff1673ffffffffffffffffffffffffffffffffffffffff1681526020018060200180602001838103835285818151815260200191508051906020019080838360005b8381101561073c578082015181840152602081019050610721565b50505050905090810190601f1680156107695780820380516001836020036101000a031916815260200191505b50838103825284818151815260200191508051906020019080838360005b838110156107a2578082015181840152602081019050610787565b50505050905090810190601f1680156107cf5780820380516001836020036101000a031916815260200191505b509550505050505060405180910390f35b60076020528060005260406000206000915090508060000154908060010160009054906101000a900473ffffffffffffffffffffffffffffffffffffffff1690806002018054600181600116156101000203166002900480601f0160208091040260200160405190810160405280929190818152602001828054600181600116156101000203166002900480156108b85780601f1061088d576101008083540402835291602001916108b8565b820191906000526020600020905b81548152906001019060200180831161089b57829003601f168201915b505050505090806003018054600181600116156101000203166002900480601f0160208091040260200160405190810160405280929190818152602001828054600181600116156101000203166002900480156109565780601f1061092b57610100808354040283529160200191610956565b820191906000526020600020905b81548152906001019060200180831161093957829003601f168201915b5050505050908060040154908060050154905086565b60003390506003600081548092919060010191905055506040518060c001604052808581526020018273ffffffffffffffffffffffffffffffffffffffff1681526020018481526020018381526020016000815260200160008152506007600060035481526020019081526020016000206000820151816000015560208201518160010160006101000a81548173ffffffffffffffffffffffffffffffffffffffff021916908373ffffffffffffffffffffffffffffffffffffffff1602179055506040820151816002019080519060200190610a4a9291906110de565b506060820151816003019080519060200190610a679291906110de565b506080820151816004015560a082015181600501559050507fb24c7bacaa7e6f132eae3712d9d0d989847de5bb57f8d2d0fd8c02b7bbeba48060035485838686604051808681526020018581526020018473ffffffffffffffffffffffffffffffffffffffff1673ffffffffffffffffffffffffffffffffffffffff1681526020018060200180602001838103835285818151815260200191508051906020019080838360005b83811015610b29578082015181840152602081019050610b0e565b50505050905090810190601f168015610b565780820380516001836020036101000a031916815260200191505b50838103825284818151815260200191508051906020019080838360005b83811015610b8f578082015181840152602081019050610b74565b50505050905090810190601f168015610bbc5780820380516001836020036101000a031916815260200191505b5097505050505050505060405180910390a150505050565b60015481565b60025481565b60066020528060005260406000206000915090508060000160009054906101000a900473ffffffffffffffffffffffffffffffffffffffff1690806001018054600181600116156101000203166002900480601f016020809104026020016040519081016040528092919081815260200182805460018160011615610100020316600290048015610cb25780601f10610c8757610100808354040283529160200191610cb2565b820191906000526020600020905b815481529060010190602001808311610c9557829003601f168201915b505050505090806002018054600181600116156101000203166002900480601f016020809104026020016040519081016040528092919081815260200182805460018160011615610100020316600290048015610d505780601f10610d2557610100808354040283529160200191610d50565b820191906000526020600020905b815481529060010190602001808311610d3357829003601f168201915b5050505050905083565b60035481565b60005481565b6004602052806000526040600020600091509050806000018054600181600116156101000203166002900480601f016020809104026020016040519081016040528092919081815260200182805460018160011615610100020316600290048015610e125780601f10610de757610100808354040283529160200191610e12565b820191906000526020600020905b815481529060010190602001808311610df557829003601f168201915b505050505090806001018054600181600116156101000203166002900480601f016020809104026020016040519081016040528092919081815260200182805460018160011615610100020316600290048015610eb05780601f10610e8557610100808354040283529160200191610eb0565b820191906000526020600020905b815481529060010190602001808311610e9357829003601f168201915b505050505090806002015490806003018054600181600116156101000203166002900480601f016020809104026020016040519081016040528092919081815260200182805460018160011615610100020316600290048015610f545780601f10610f2957610100808354040283529160200191610f54565b820191906000526020600020905b815481529060010190602001808311610f3757829003601f168201915b5050505050908060040154905085565b60056020528060005260406000206000915090508060000160009054906101000a900473ffffffffffffffffffffffffffffffffffffffff1690806001018054600181600116156101000203166002900480601f0160208091040260200160405190810160405280929190818152602001828054600181600116156101000203166002900480156110365780601f1061100b57610100808354040283529160200191611036565b820191906000526020600020905b81548152906001019060200180831161101957829003601f168201915b505050505090806002018054600181600116156101000203166002900480601f0160208091040260200160405190810160405280929190818152602001828054600181600116156101000203166002900480156110d45780601f106110a9576101008083540402835291602001916110d4565b820191906000526020600020905b8154815290600101906020018083116110b757829003601f168201915b5050505050905083565b828054600181600116156101000203166002900490600052602060002090601f016020900481019282601f1061111f57805160ff191683800117855561114d565b8280016001018555821561114d579182015b8281111561114c578251825591602001919060010190611131565b5b50905061115a919061115e565b5090565b61118091905b8082111561117c576000816000905550600101611164565b5090565b9056fea265627a7a72315820666da0ff2eeca22086b1e06db4c9aa585939d3f7f88bfc1d6b3ef782e7708ea764736f6c63430005100032",
  "source": "pragma solidity ^0.5.0;\n\ncontract HealthnetApp {\n\n  uint public patientCount = 0;\n  uint public hospitalCount = 0;\n  uint public insurerCount = 0;\n  uint public recordCount = 0;\n\n  struct PatientData {\n    string name;\n    string dob;\n    uint phone;\n    string email;\n    uint firstRecord;\n  }\n\n  struct DoctorData {\n    address doctorAddress;\n    //todo\n  }\n\n  struct HospitalData {\n    address hospitalAddress;\n    string name;\n    string code;\n  }\n\n  struct InsurerData {\n    address insurerAddress;\n    string name;\n    string code;\n  }\n\n  struct RecordData {\n    uint patientNumber;\n    address hospitalAddress;\n    string recordText;\n    string dateTime;\n    uint next;\n    uint approved;\n  }\n\n  mapping(uint => PatientData) public patientList;\n  mapping(uint => HospitalData) public hospitalList;\n  mapping(uint => InsurerData) public insurerList;\n  mapping(uint => RecordData) public recordList;\n\n  event NewRecord(\n    uint recordNumber,\n    uint patientNumber,\n    address hospitalAddress,\n    string recordText,\n    string dateTime\n  );\n\n  constructor() public {\n    // Can make the constructor do something here.\n  }\n\n  function addRecord(uint _patient_number, string memory _record_text, string memory _date_time) public {\n    address _hospital_address = msg.sender;\n    recordCount ++;\n    recordList[recordCount] = RecordData(_patient_number, _hospital_address, _record_text, _date_time, 0, 0);\n    emit NewRecord(recordCount, _patient_number, _hospital_address, _record_text, _date_time);\n  }\n\n}\n",
  "sourcePath": "/home/srujan/Projects/healthnet/contracts/HealthnetApp.sol",
  "compiler": {
    "name": "solc",
    "version": "0.5.16+commit.9c3226ce.Emscripten.clang"
  },
  "schemaVersion": "3.0.23",
  "updatedAt": "2020-05-13T13:00:29.653Z",
  "devdoc": {
    "methods": {}
  },
  "userdoc": {
    "methods": {}
  }
}